{
  "contractName": "Vote_Contract",
  "abi": [
    {
      "inputs": [],
      "payable": false,
      "stateMutability": "nonpayable",
      "type": "constructor"
    },
    {
      "anonymous": false,
      "inputs": [],
      "name": "CommissionerErr",
      "type": "event"
    },
    {
      "anonymous": false,
      "inputs": [
        {
          "indexed": false,
          "internalType": "string",
          "name": "name",
          "type": "string"
        },
        {
          "indexed": false,
          "internalType": "address",
          "name": "add",
          "type": "address"
        }
      ],
      "name": "Registered_event",
      "type": "event"
    },
    {
      "constant": true,
      "inputs": [
        {
          "internalType": "address",
          "name": "",
          "type": "address"
        }
      ],
      "name": "Registered",
      "outputs": [
        {
          "internalType": "uint256",
          "name": "Votes",
          "type": "uint256"
        },
        {
          "internalType": "string",
          "name": "Party",
          "type": "string"
        },
        {
          "internalType": "address",
          "name": "Address",
          "type": "address"
        },
        {
          "internalType": "bool",
          "name": "Registered",
          "type": "bool"
        }
      ],
      "payable": false,
      "stateMutability": "view",
      "type": "function"
    },
    {
      "constant": true,
      "inputs": [],
      "name": "Stop_party_registeration",
      "outputs": [
        {
          "internalType": "bool",
          "name": "",
          "type": "bool"
        }
      ],
      "payable": false,
      "stateMutability": "view",
      "type": "function"
    },
    {
      "constant": true,
      "inputs": [
        {
          "internalType": "address",
          "name": "",
          "type": "address"
        }
      ],
      "name": "Voters_registered",
      "outputs": [
        {
          "internalType": "bool",
          "name": "Vote",
          "type": "bool"
        },
        {
          "internalType": "address",
          "name": "Candidate",
          "type": "address"
        }
      ],
      "payable": false,
      "stateMutability": "view",
      "type": "function"
    },
    {
      "constant": true,
      "inputs": [],
      "name": "Voting_End",
      "outputs": [
        {
          "internalType": "bool",
          "name": "",
          "type": "bool"
        }
      ],
      "payable": false,
      "stateMutability": "view",
      "type": "function"
    },
    {
      "constant": false,
      "inputs": [
        {
          "internalType": "string",
          "name": "Party",
          "type": "string"
        }
      ],
      "name": "Register_Candidate",
      "outputs": [],
      "payable": false,
      "stateMutability": "nonpayable",
      "type": "function"
    },
    {
      "constant": false,
      "inputs": [
        {
          "internalType": "address",
          "name": "addr",
          "type": "address"
        }
      ],
      "name": "Register_Vote",
      "outputs": [
        {
          "internalType": "string",
          "name": "",
          "type": "string"
        }
      ],
      "payable": false,
      "stateMutability": "nonpayable",
      "type": "function"
    },
    {
      "constant": false,
      "inputs": [],
      "name": "Start_voting",
      "outputs": [],
      "payable": false,
      "stateMutability": "nonpayable",
      "type": "function"
    },
    {
      "constant": false,
      "inputs": [],
      "name": "End_voting",
      "outputs": [],
      "payable": false,
      "stateMutability": "nonpayable",
      "type": "function"
    }
  ],
  "bytecode": "0x60806040526001600060146101000a81548160ff02191690831515021790555060008060156101000a81548160ff02191690831515021790555034801561004557600080fd5b50336000806101000a81548173ffffffffffffffffffffffffffffffffffffffff021916908373ffffffffffffffffffffffffffffffffffffffff160217905550610bf4806100956000396000f3fe608060405234801561001057600080fd5b50600436106100885760003560e01c80637731ef521161005b5780637731ef5214610329578063c51a9fbe14610333578063cd5c499914610355578063e2d05c9e146103e457610088565b806314fe20dc1461008d5780632d3734a81461014a57806336ce3bd71461024c57806371d9a5071461026e575b600080fd5b6100cf600480360360208110156100a357600080fd5b81019080803573ffffffffffffffffffffffffffffffffffffffff1690602001909291905050506103ee565b6040518080602001828103825283818151815260200191508051906020019080838360005b8381101561010f5780820151818401526020810190506100f4565b50505050905090810190601f16801561013c5780820380516001836020036101000a031916815260200191505b509250505060405180910390f35b61018c6004803603602081101561016057600080fd5b81019080803573ffffffffffffffffffffffffffffffffffffffff169060200190929190505050610617565b60405180858152602001806020018473ffffffffffffffffffffffffffffffffffffffff1673ffffffffffffffffffffffffffffffffffffffff16815260200183151515158152602001828103825285818151815260200191508051906020019080838360005b8381101561020e5780820151818401526020810190506101f3565b50505050905090810190601f16801561023b5780820380516001836020036101000a031916815260200191505b509550505050505060405180910390f35b61025461070c565b604051808215151515815260200191505060405180910390f35b6103276004803603602081101561028457600080fd5b81019080803590602001906401000000008111156102a157600080fd5b8201836020820111156102b357600080fd5b803590602001918460018302840111640100000000831117156102d557600080fd5b91908080601f016020809104026020016040519081016040528093929190818152602001838380828437600081840152601f19601f82011690508083019250505050505050919291929050505061071f565b005b61033161099d565b005b61033b610a12565b604051808215151515815260200191505060405180910390f35b6103976004803603602081101561036b57600080fd5b81019080803573ffffffffffffffffffffffffffffffffffffffff169060200190929190505050610a25565b60405180831515151581526020018273ffffffffffffffffffffffffffffffffffffffff1673ffffffffffffffffffffffffffffffffffffffff1681526020019250505060405180910390f35b6103ec610a76565b005b606060001515600060149054906101000a900460ff1615151415610612576000809054906101000a900473ffffffffffffffffffffffffffffffffffffffff1673ffffffffffffffffffffffffffffffffffffffff163373ffffffffffffffffffffffffffffffffffffffff16146105f5576000600260003373ffffffffffffffffffffffffffffffffffffffff1673ffffffffffffffffffffffffffffffffffffffff16815260200190815260200160002090506000600160008573ffffffffffffffffffffffffffffffffffffffff1673ffffffffffffffffffffffffffffffffffffffff1681526020019081526020016000209050600015158260000160009054906101000a900460ff16151514156105b65760018260000160006101000a81548160ff021916908315150217905550838260000160016101000a81548173ffffffffffffffffffffffffffffffffffffffff021916908373ffffffffffffffffffffffffffffffffffffffff160217905550600181600001600082825401925050819055506040518060400160405280601281526020017f566f746564205375636365737366756c6c79000000000000000000000000000081525092505050610611565b6040518060400160405280601681526020017f596f75206861766520616c726561647920566f7465640000000000000000000081525092505050610611565b6040518060600160405280602e8152602001610b92602e913990505b5b919050565b6001602052806000526040600020600091509050806000015490806001018054600181600116156101000203166002900480601f0160208091040260200160405190810160405280929190818152602001828054600181600116156101000203166002900480156106c95780601f1061069e576101008083540402835291602001916106c9565b820191906000526020600020905b8154815290600101906020018083116106ac57829003601f168201915b5050505050908060020160009054906101000a900473ffffffffffffffffffffffffffffffffffffffff16908060020160149054906101000a900460ff16905084565b600060149054906101000a900460ff1681565b60001515600060159054906101000a900460ff161515148015610755575060011515600060149054906101000a900460ff161515145b1561099a576000809054906101000a900473ffffffffffffffffffffffffffffffffffffffff1673ffffffffffffffffffffffffffffffffffffffff163373ffffffffffffffffffffffffffffffffffffffff161461096c576000600160003373ffffffffffffffffffffffffffffffffffffffff1673ffffffffffffffffffffffffffffffffffffffff1681526020019081526020016000209050600015158160020160149054906101000a900460ff1615151461081357600080fd5b6000816000018190555081816001019080519060200190610835929190610aec565b50338160020160006101000a81548173ffffffffffffffffffffffffffffffffffffffff021916908373ffffffffffffffffffffffffffffffffffffffff16021790555060018160020160146101000a81548160ff0219169083151502179055507fb161a75788c02ceafe7cbee5630ab5ec3a50c11b44a55d16e0caea519c2732c4823360405180806020018373ffffffffffffffffffffffffffffffffffffffff1673ffffffffffffffffffffffffffffffffffffffff168152602001828103825284818151815260200191508051906020019080838360005b8381101561092b578082015181840152602081019050610910565b50505050905090810190601f1680156109585780820380516001836020036101000a031916815260200191505b50935050505060405180910390a150610999565b7fc1233681ebaebc362202975635cca866a369597704bf28cf4daa76b1e855d4d460405160405180910390a15b5b50565b6000809054906101000a900473ffffffffffffffffffffffffffffffffffffffff1673ffffffffffffffffffffffffffffffffffffffff163373ffffffffffffffffffffffffffffffffffffffff16146109f657600080fd5b60008060146101000a81548160ff021916908315150217905550565b600060159054906101000a900460ff1681565b60026020528060005260406000206000915090508060000160009054906101000a900460ff16908060000160019054906101000a900473ffffffffffffffffffffffffffffffffffffffff16905082565b6000809054906101000a900473ffffffffffffffffffffffffffffffffffffffff1673ffffffffffffffffffffffffffffffffffffffff163373ffffffffffffffffffffffffffffffffffffffff1614610acf57600080fd5b6001600060146101000a81548160ff021916908315150217905550565b828054600181600116156101000203166002900490600052602060002090601f016020900481019282601f10610b2d57805160ff1916838001178555610b5b565b82800160010185558215610b5b579182015b82811115610b5a578251825591602001919060010190610b3f565b5b509050610b689190610b6c565b5090565b610b8e91905b80821115610b8a576000816000905550600101610b72565b5090565b9056fe4368616e676520416464726573732c20596f752061726520436f6d6d697373696f6e6572207269676874206e6f77a265627a7a723158203f8587c534b6d66052795319bed20cfa044d1ddab8f00ce897ac1e43113a920564736f6c63430005100032",
  "source": "pragma solidity ^0.5.16;\n\ncontract Vote_Contract {\n\n    address private Commissioner;\n    bool public Voting_End = true;\n    bool public Stop_party_registeration = false;\n\n    event Registered_event(string name, address add);\n    event CommissionerErr();\n\n    struct Candidate{\n        uint Votes;\n        string Party;\n        address Address;\n        bool Registered;\n    }\n\n    struct Voter {\n        bool Vote;\n        address Candidate;\n    }\n\n    constructor() public {\n        Commissioner = msg.sender;\n    }\n\n    mapping (address => Candidate) public Registered;\n    mapping (address => Voter) public Voters_registered;\n\n    modifier Voting_allowed(){\n        if(Voting_End == false){\n            _;\n        }\n    }\n\n    modifier PartyRegistration_allowed(){\n        if(Stop_party_registeration == false && Voting_End == true){\n            _;\n        }\n    }\n\n    function Register_Candidate(string memory Party) public PartyRegistration_allowed {\n\n        if(msg.sender != Commissioner){\n            Candidate storage x = Registered[msg.sender];\n            require(x.Registered == false);\n            x.Votes = 0;\n            x.Party = Party;\n            x.Address = msg.sender;\n            x.Registered = true;\n            emit Registered_event(Party, msg.sender);\n        }else{\n            emit CommissionerErr();\n        }\n    }\n\n    function Register_Vote(address addr) public Voting_allowed returns (string memory){\n        if(msg.sender != Commissioner){\n            Voter storage x = Voters_registered[msg.sender];\n            Candidate storage y = Registered[addr];\n            if(x.Vote == false){\n                x.Vote = true;\n                x.Candidate = addr;\n                y.Votes += 1;\n                return \"Voted Successfully\";\n            }else{\n                return \"You have already Voted\";\n            }\n        }else{\n            return \"Change Address, You are Commissioner right now\";\n        }\n    }\n\n    function Start_voting() public {\n        require(msg.sender == Commissioner);\n        Voting_End = false;\n    }\n\n    function End_voting() public {\n        require(msg.sender == Commissioner);\n        Voting_End = true;\n    }\n\n    function End_Party_Registration() internal {\n        require(msg.sender == Commissioner);\n        Stop_party_registeration = true;\n    }\n\n}\n",
  "sourcePath": "/home/harsh/Desktop/Vote_Dapp/contracts/Vote_Contract.sol",
  "compiler": {
    "name": "solc",
    "version": "0.5.16+commit.9c3226ce.Emscripten.clang"
  },
  "schemaVersion": "3.2.2",
  "updatedAt": "2020-07-15T19:12:44.639Z",
  "devdoc": {
    "methods": {}
  },
  "userdoc": {
    "methods": {}
  }
}