{
  "contractName": "Vote_Contract",
  "abi": [
    {
      "inputs": [],
      "payable": false,
      "stateMutability": "nonpayable",
      "type": "constructor"
    },
    {
      "anonymous": false,
      "inputs": [],
      "name": "Draw",
      "type": "event"
    },
    {
      "anonymous": false,
      "inputs": [
        {
          "indexed": false,
          "internalType": "string",
          "name": "name",
          "type": "string"
        },
        {
          "indexed": false,
          "internalType": "address",
          "name": "add",
          "type": "address"
        }
      ],
      "name": "Registered_event",
      "type": "event"
    },
    {
      "anonymous": false,
      "inputs": [],
      "name": "Registration_started",
      "type": "event"
    },
    {
      "anonymous": false,
      "inputs": [],
      "name": "Registration_stopped",
      "type": "event"
    },
    {
      "anonymous": false,
      "inputs": [
        {
          "indexed": false,
          "internalType": "address",
          "name": "add",
          "type": "address"
        }
      ],
      "name": "Voted",
      "type": "event"
    },
    {
      "anonymous": false,
      "inputs": [],
      "name": "Voting_started",
      "type": "event"
    },
    {
      "anonymous": false,
      "inputs": [],
      "name": "Voting_stopped",
      "type": "event"
    },
    {
      "anonymous": false,
      "inputs": [
        {
          "indexed": false,
          "internalType": "address",
          "name": "add",
          "type": "address"
        }
      ],
      "name": "Winner",
      "type": "event"
    },
    {
      "constant": true,
      "inputs": [
        {
          "internalType": "address",
          "name": "",
          "type": "address"
        }
      ],
      "name": "Registered",
      "outputs": [
        {
          "internalType": "uint256",
          "name": "Votes",
          "type": "uint256"
        },
        {
          "internalType": "string",
          "name": "Party",
          "type": "string"
        },
        {
          "internalType": "address",
          "name": "Address",
          "type": "address"
        },
        {
          "internalType": "bool",
          "name": "Registered",
          "type": "bool"
        }
      ],
      "payable": false,
      "stateMutability": "view",
      "type": "function"
    },
    {
      "constant": true,
      "inputs": [],
      "name": "Stop_party_registeration",
      "outputs": [
        {
          "internalType": "bool",
          "name": "",
          "type": "bool"
        }
      ],
      "payable": false,
      "stateMutability": "view",
      "type": "function"
    },
    {
      "constant": true,
      "inputs": [
        {
          "internalType": "address",
          "name": "",
          "type": "address"
        }
      ],
      "name": "Voters_registered",
      "outputs": [
        {
          "internalType": "bool",
          "name": "Vote",
          "type": "bool"
        },
        {
          "internalType": "address",
          "name": "Candidate",
          "type": "address"
        }
      ],
      "payable": false,
      "stateMutability": "view",
      "type": "function"
    },
    {
      "constant": true,
      "inputs": [],
      "name": "Voting_End",
      "outputs": [
        {
          "internalType": "bool",
          "name": "",
          "type": "bool"
        }
      ],
      "payable": false,
      "stateMutability": "view",
      "type": "function"
    },
    {
      "constant": true,
      "inputs": [
        {
          "internalType": "uint256",
          "name": "",
          "type": "uint256"
        }
      ],
      "name": "candidate",
      "outputs": [
        {
          "internalType": "address",
          "name": "",
          "type": "address"
        }
      ],
      "payable": false,
      "stateMutability": "view",
      "type": "function"
    },
    {
      "constant": false,
      "inputs": [
        {
          "internalType": "string",
          "name": "Party",
          "type": "string"
        }
      ],
      "name": "Register_Candidate",
      "outputs": [],
      "payable": false,
      "stateMutability": "nonpayable",
      "type": "function"
    },
    {
      "constant": false,
      "inputs": [
        {
          "internalType": "address",
          "name": "addr",
          "type": "address"
        }
      ],
      "name": "Register_Vote",
      "outputs": [],
      "payable": false,
      "stateMutability": "nonpayable",
      "type": "function"
    },
    {
      "constant": false,
      "inputs": [],
      "name": "Start_voting",
      "outputs": [],
      "payable": false,
      "stateMutability": "nonpayable",
      "type": "function"
    },
    {
      "constant": false,
      "inputs": [],
      "name": "End_voting",
      "outputs": [],
      "payable": false,
      "stateMutability": "nonpayable",
      "type": "function"
    },
    {
      "constant": false,
      "inputs": [],
      "name": "Start_Party_Registration",
      "outputs": [],
      "payable": false,
      "stateMutability": "nonpayable",
      "type": "function"
    },
    {
      "constant": false,
      "inputs": [],
      "name": "End_Party_Registration",
      "outputs": [],
      "payable": false,
      "stateMutability": "nonpayable",
      "type": "function"
    }
  ],
  "bytecode": "0x60806040526001600060146101000a81548160ff02191690831515021790555060008060156101000a81548160ff02191690831515021790555034801561004557600080fd5b50336000806101000a81548173ffffffffffffffffffffffffffffffffffffffff021916908373ffffffffffffffffffffffffffffffffffffffff16021790555061113d806100956000396000f3fe608060405234801561001057600080fd5b50600436106100a95760003560e01c80637731ef52116100715780637731ef521461033f57806384b488b814610349578063c51a9fbe14610353578063cd5c499914610375578063dae50af714610404578063e2d05c9e1461040e576100a9565b806314fe20dc146100ae5780631de43c4b146100f25780632d3734a81461016057806336ce3bd71461026257806371d9a50714610284575b600080fd5b6100f0600480360360208110156100c457600080fd5b81019080803573ffffffffffffffffffffffffffffffffffffffff169060200190929190505050610418565b005b61011e6004803603602081101561010857600080fd5b810190808035906020019092919050505061064e565b604051808273ffffffffffffffffffffffffffffffffffffffff1673ffffffffffffffffffffffffffffffffffffffff16815260200191505060405180910390f35b6101a26004803603602081101561017657600080fd5b81019080803573ffffffffffffffffffffffffffffffffffffffff16906020019092919050505061068a565b60405180858152602001806020018473ffffffffffffffffffffffffffffffffffffffff1673ffffffffffffffffffffffffffffffffffffffff16815260200183151515158152602001828103825285818151815260200191508051906020019080838360005b83811015610224578082015181840152602081019050610209565b50505050905090810190601f1680156102515780820380516001836020036101000a031916815260200191505b509550505050505060405180910390f35b61026a61077f565b604051808215151515815260200191505060405180910390f35b61033d6004803603602081101561029a57600080fd5b81019080803590602001906401000000008111156102b757600080fd5b8201836020820111156102c957600080fd5b803590602001918460018302840111640100000000831117156102eb57600080fd5b91908080601f016020809104026020016040519081016040528093929190818152602001838380828437600081840152601f19601f820116905080830192505050505050509192919290505050610792565b005b610347610a4e565b005b610351610b0f565b005b61035b610bd0565b604051808215151515815260200191505060405180910390f35b6103b76004803603602081101561038b57600080fd5b81019080803573ffffffffffffffffffffffffffffffffffffffff169060200190929190505050610be3565b60405180831515151581526020018273ffffffffffffffffffffffffffffffffffffffff1673ffffffffffffffffffffffffffffffffffffffff1681526020019250505060405180910390f35b61040c610c34565b005b610416610cf6565b005b6000809054906101000a900473ffffffffffffffffffffffffffffffffffffffff1673ffffffffffffffffffffffffffffffffffffffff163373ffffffffffffffffffffffffffffffffffffffff16141561047257600080fd5b60001515600060149054906101000a900460ff1615151461049257600080fd5b8073ffffffffffffffffffffffffffffffffffffffff163373ffffffffffffffffffffffffffffffffffffffff1614156104cb57600080fd5b6000600360003373ffffffffffffffffffffffffffffffffffffffff1673ffffffffffffffffffffffffffffffffffffffff1681526020019081526020016000209050600015158160000160009054906101000a900460ff1615151461053057600080fd5b6000600260008473ffffffffffffffffffffffffffffffffffffffff1673ffffffffffffffffffffffffffffffffffffffff168152602001908152602001600020905060018260000160006101000a81548160ff021916908315150217905550828260000160016101000a81548173ffffffffffffffffffffffffffffffffffffffff021916908373ffffffffffffffffffffffffffffffffffffffff160217905550600181600001600082825401925050819055507f16a9aa39af49f169911e977347975198c503525f7240d6892a626f0227642fce33604051808273ffffffffffffffffffffffffffffffffffffffff1673ffffffffffffffffffffffffffffffffffffffff16815260200191505060405180910390a1505050565b6001818154811061065b57fe5b906000526020600020016000915054906101000a900473ffffffffffffffffffffffffffffffffffffffff1681565b6002602052806000526040600020600091509050806000015490806001018054600181600116156101000203166002900480601f01602080910402602001604051908101604052809291908181526020018280546001816001161561010002031660029004801561073c5780601f106107115761010080835404028352916020019161073c565b820191906000526020600020905b81548152906001019060200180831161071f57829003601f168201915b5050505050908060020160009054906101000a900473ffffffffffffffffffffffffffffffffffffffff16908060020160149054906101000a900460ff16905084565b600060149054906101000a900460ff1681565b6000809054906101000a900473ffffffffffffffffffffffffffffffffffffffff1673ffffffffffffffffffffffffffffffffffffffff163373ffffffffffffffffffffffffffffffffffffffff1614156107ec57600080fd5b60001515600060159054906101000a900460ff1615151461080c57600080fd5b60011515600060149054906101000a900460ff1615151461082c57600080fd5b6000600260003373ffffffffffffffffffffffffffffffffffffffff1673ffffffffffffffffffffffffffffffffffffffff1681526020019081526020016000209050600015158160020160149054906101000a900460ff1615151461089157600080fd5b60008160000181905550818160010190805190602001906108b3929190611063565b50338160020160006101000a81548173ffffffffffffffffffffffffffffffffffffffff021916908373ffffffffffffffffffffffffffffffffffffffff16021790555060018160020160146101000a81548160ff02191690831515021790555060013390806001815401808255809150509060018203906000526020600020016000909192909190916101000a81548173ffffffffffffffffffffffffffffffffffffffff021916908373ffffffffffffffffffffffffffffffffffffffff160217905550507fb161a75788c02ceafe7cbee5630ab5ec3a50c11b44a55d16e0caea519c2732c4823360405180806020018373ffffffffffffffffffffffffffffffffffffffff1673ffffffffffffffffffffffffffffffffffffffff168152602001828103825284818151815260200191508051906020019080838360005b83811015610a0f5780820151818401526020810190506109f4565b50505050905090810190601f168015610a3c5780820380516001836020036101000a031916815260200191505b50935050505060405180910390a15050565b60011515600060149054906101000a900460ff16151514610a6e57600080fd5b6000809054906101000a900473ffffffffffffffffffffffffffffffffffffffff1673ffffffffffffffffffffffffffffffffffffffff163373ffffffffffffffffffffffffffffffffffffffff1614610ac757600080fd5b60008060146101000a81548160ff0219169083151502179055507fbe2ab244915b1e4db38fabfb0978e043568c00764e2a29ea277006ee6ab1f9b360405160405180910390a1565b60011515600060159054906101000a900460ff16151514610b2f57600080fd5b6000809054906101000a900473ffffffffffffffffffffffffffffffffffffffff1673ffffffffffffffffffffffffffffffffffffffff163373ffffffffffffffffffffffffffffffffffffffff1614610b8857600080fd5b60008060156101000a81548160ff0219169083151502179055507f8d3abc9c3faa00d30bee272446c0556e90326d020d58f4bcb8cbf9248a5304c760405160405180910390a1565b600060159054906101000a900460ff1681565b60036020528060005260406000206000915090508060000160009054906101000a900460ff16908060000160019054906101000a900473ffffffffffffffffffffffffffffffffffffffff16905082565b60001515600060159054906101000a900460ff16151514610c5457600080fd5b6000809054906101000a900473ffffffffffffffffffffffffffffffffffffffff1673ffffffffffffffffffffffffffffffffffffffff163373ffffffffffffffffffffffffffffffffffffffff1614610cad57600080fd5b6001600060156101000a81548160ff0219169083151502179055507f40415212dee5721b7acc8c304825fe309db168d78066ec6f01a0829d0b6d723a60405160405180910390a1565b60001515600060149054906101000a900460ff16151514610d1657600080fd5b6000809054906101000a900473ffffffffffffffffffffffffffffffffffffffff1673ffffffffffffffffffffffffffffffffffffffff163373ffffffffffffffffffffffffffffffffffffffff1614610d6f57600080fd5b6001600060146101000a81548160ff021916908315150217905550610d92610dc0565b7fb517837a310a71edbcd76f45764588a63cdb3d37fecf5e41ab7213fa3c70e48160405160405180910390a1565b60008060008090506000600180549050905060008090505b81811015610fc157846002600060018481548110610df257fe5b9060005260206000200160009054906101000a900473ffffffffffffffffffffffffffffffffffffffff1673ffffffffffffffffffffffffffffffffffffffff1673ffffffffffffffffffffffffffffffffffffffff168152602001908152602001600020600001541115610f20576002600060018381548110610e7257fe5b9060005260206000200160009054906101000a900473ffffffffffffffffffffffffffffffffffffffff1673ffffffffffffffffffffffffffffffffffffffff1673ffffffffffffffffffffffffffffffffffffffff16815260200190815260200160002060000154945060018181548110610eea57fe5b9060005260206000200160009054906101000a900473ffffffffffffffffffffffffffffffffffffffff16935060009250610fb4565b846002600060018481548110610f3257fe5b9060005260206000200160009054906101000a900473ffffffffffffffffffffffffffffffffffffffff1673ffffffffffffffffffffffffffffffffffffffff1673ffffffffffffffffffffffffffffffffffffffff16815260200190815260200160002060000154148015610fa9575060008514155b15610fb357600192505b5b8080600101915050610dd8565b508115610ff9577fd4e78272079f47a2dd45d8f7092ff3a44f8abfcaeb43c35f8f96e14d610dc8fc60405160405180910390a161105d565b7f745c90b656b4aafe296c8ca35aeacfe56cb96c90e1d320e5da643fff1051b6c083604051808273ffffffffffffffffffffffffffffffffffffffff1673ffffffffffffffffffffffffffffffffffffffff16815260200191505060405180910390a15b50505050565b828054600181600116156101000203166002900490600052602060002090601f016020900481019282601f106110a457805160ff19168380011785556110d2565b828001600101855582156110d2579182015b828111156110d15782518255916020019190600101906110b6565b5b5090506110df91906110e3565b5090565b61110591905b808211156111015760008160009055506001016110e9565b5090565b9056fea265627a7a72315820e9dcab226737042e1b02843c51cbf3c3f12e75f81db726f2553566040844170264736f6c63430005100032",
  "source": "pragma solidity ^0.5.16;\n\ncontract Vote_Contract {\n\n    address private Commissioner;\n    bool public Voting_End = true;\n    bool public Stop_party_registeration = false;\n\n    event Registered_event(string name, address add);\n    event Voted(address add);\n    event Voting_stopped();\n    event Voting_started();\n    event Registration_stopped();\n    event Registration_started();\n    event Winner(address add);\n    event Draw();\n\n    struct Candidate{\n        uint Votes;\n        string Party;\n        address Address;\n        bool Registered;\n    }\n\n    struct Voter {\n        bool Vote;\n        address Candidate;\n    }\n\n    constructor() public {\n        Commissioner = msg.sender;\n    }\n\n    address[] public candidate;\n    mapping (address => Candidate) public Registered;\n    mapping (address => Voter) public Voters_registered;\n\n    function Register_Candidate(string memory Party) public {\n        require(msg.sender != Commissioner);\n        require(Stop_party_registeration == false);\n        require(Voting_End == true);\n        Candidate storage x = Registered[msg.sender];\n        require(x.Registered == false);\n        x.Votes = 0;\n        x.Party = Party;\n        x.Address = msg.sender;\n        x.Registered = true;\n        candidate.push(msg.sender);\n        emit Registered_event(Party, msg.sender);\n    }\n\n    function Register_Vote(address addr) public {\n        require(msg.sender != Commissioner);\n        require(Voting_End == false);\n        require(msg.sender != addr);\n        Voter storage x = Voters_registered[msg.sender];\n        require(x.Vote == false);\n        Candidate storage y = Registered[addr];\n        x.Vote = true;\n        x.Candidate = addr;\n        y.Votes += 1;\n        emit Voted(msg.sender);\n    }\n\n    function Start_voting() public {\n        require(Voting_End == true);\n        require(msg.sender == Commissioner);\n        Voting_End = false;\n        emit Voting_started();\n    }\n\n    function End_voting() public {\n        require(Voting_End == false);\n        require(msg.sender == Commissioner);\n        Voting_End = true;\n        Set_Winner();\n        emit Voting_stopped();\n    }\n\n    function Set_Winner() private {\n        uint maxVotes;\n        address winner;\n        bool draw = false;\n        uint len = candidate.length;\n        for (uint i=0; i<len; i++) {\n            if(Registered[candidate[i]].Votes > maxVotes) {\n                maxVotes = Registered[candidate[i]].Votes;\n                winner = candidate[i];\n                draw = false;\n            }else if(Registered[candidate[i]].Votes == maxVotes && maxVotes != 0){\n                draw = true;\n            }\n        }\n\n        if(draw)\n          emit Draw();\n        else\n          emit Winner(winner);\n    }\n\n    function Start_Party_Registration() public {\n        require(Stop_party_registeration == true);\n        require(msg.sender == Commissioner);\n        Stop_party_registeration = false;\n        emit Registration_started();\n    }\n\n    function End_Party_Registration() public {\n        require(Stop_party_registeration == false);\n        require(msg.sender == Commissioner);\n        Stop_party_registeration = true;\n        emit Registration_stopped();\n    }\n}\n",
  "sourcePath": "/home/harsh/Desktop/E-Voting-Blockchain-/contracts/Vote_Contract.sol",
  "compiler": {
    "name": "solc",
    "version": "0.5.16+commit.9c3226ce.Emscripten.clang"
  },
  "schemaVersion": "3.2.2",
  "updatedAt": "2020-07-17T05:12:35.725Z",
  "networkType": "ethereum",
  "devdoc": {
    "methods": {}
  },
  "userdoc": {
    "methods": {}
  }
}